:1000000071C000008EC000008CC000008AC00000DB
:1000100088C0000086C000004BC1000082C0000004
:1000200080C000007EC000007CC000007AC00000DC
:1000300078C0000076C0000074C0000072C00000EC
:1000400070C000006EC000006CC000006AC00000FC
:1000500068C0000066C0000064C000008EC00000E0
:1000600060C000005EC000005CC000005AC000001C
:1000700058C0000056C0000054C0000052C000002C
:1000800050C000004EC000004CC000004AC000003C
:1000900048C0000046C0000044C0000042C000004C
:1000A00040C000003EC000003CC000003AC000005C
:1000B00038C0000036C0000034C0000032C000006C
:1000C00030C000002EC000002CC000002AC000007C
:1000D00028C0000026C0000024C0000022C000008C
:1000E00020C0000011241FBECFEFD1E2DEBFCDBF84
:1000F00000E00CBF12E0A0E0B2E0E6EBF3E000E0CD
:100100000BBF02C007900D92A030B107D9F722E0D3
:10011000A0E0B2E001C01D92AA30B207E1F704D11D
:1001200048C16ECFCF93DF93CDB7DEB784E490E0C4
:10013000FC01108285E490E023E0FC01208385E34C
:1001400090E025E330E0F9012081FC01208386E482
:1001500090E0FC0110828EE690E021E0FC0120831B
:1001600084E690E024E630E0F90120812A7FFC015A
:1001700020830000DF91CF9108951F920F9200908D
:100180005F000F92112400905B000F92AF92BF921C
:10019000CF92DF92EF92FF920F931F932F933F9393
:1001A0004F935F936F937F938F939F93AF93EF934F
:1001B000FF93CF93DF93CDB7DEB786E490E02FE2D5
:1001C000FC012083A0900202B0900302C0900402C0
:1001D000D0900502E0900602F0900702009108021C
:1001E000109109022A2D3B2D4C2D5D2D6E2D7F2D5A
:1001F000802F912FA1E0D1D0A22EB32EC42ED52EC8
:10020000E62EF72E082F192FA0920202B0920302B9
:10021000C0920402D0920502E0920602F092070218
:1002200000930802109309020000DF91CF91FF9123
:10023000EF91AF919F918F917F916F915F914F91CE
:100240003F912F911F910F91FF90EF90DF90CF90F2
:10025000BF90AF900F9000925B000F9000925F00F4
:100260000F901F901895CF93DF931F921F92CDB7D9
:10027000DEB79A83898389819A81019751F482E05C
:1002800091E022E031E0F90120812064FC0120832B
:1002900009C082E091E022E031E0F90120812F7B6A
:1002A000FC01208300000F900F90DF91CF91089503
:1002B0001F920F9200905F000F92112400905B003C
:1002C0000F922F938F939F93EF93FF93CF93DF938F
:1002D000CDB7DEB78CE290E0FC018081882F90E002
:1002E0008072992721E0892B09F420E0222339F03C
:1002F00081E090E0909301028093000204C010928C
:100300000102109200020000DF91CF91FF91EF9166
:100310009F918F912F910F9000925B000F90009210
:100320005F000F901F901895CF93DF93CDB7DEB786
:10033000F894F8DE81E091E021E031E0F9012081DC
:100340002064FC01208382E091E022E031E0F901A9
:1003500020812F7BFC0120838DE290E02DE230E0B4
:10036000F90120812F7DFC0120838AE690E02AE6B6
:1003700030E0F9012081FC0120838DE390E02DE342
:1003800030E0F90120812062FC0120837894809183
:1003900000029091010267DFFACF0024A7FD0094CC
:1003A0002A0F301D401D501D601D701D801D901DA9
:0603B0000895F894FFCF50
:00000001FF
