:1000000071C000008EC000008CC000008AC00000DB
:1000100088C0000086C00000C5C1000082C000008A
:1000200080C000007EC000007CC000007AC00000DC
:1000300078C0000076C0000074C0000072C00000EC
:1000400070C000006EC000006CC000006AC00000FC
:1000500068C0000066C0000064C000008EC00000E0
:1000600060C000005EC000005CC000005AC000001C
:1000700058C0000056C0000054C0000052C000002C
:1000800050C000004EC000004CC000004AC000003C
:1000900048C0000046C0000044C0000042C000004C
:1000A00040C000003EC000003CC000003AC000005C
:1000B00038C0000036C0000034C0000032C000006C
:1000C00030C000002EC000002CC000002AC000007C
:1000D00028C0000026C0000024C0000022C000008C
:1000E00020C0000011241FBECFEFD1E2DEBFCDBF84
:1000F00000E00CBF12E0A0E0B2E0EEEBF4E000E0C4
:100100000BBF02C007900D92A230B107D9F722E0D1
:10011000A2E0B2E001C01D92A031B207E1F788D1A0
:10012000CCC16ECFCF93DF93CDB7DEB784E490E040
:10013000FC01108285E490E023E0FC01208385E34C
:1001400090E025E330E0F9012081FC01208386E482
:1001500090E0FC0110828EE690E021E0FC0120831B
:1001600084E690E024E630E0F90120812A7FFC015A
:1001700020830000DF91CF9108951F920F9200908D
:100180005F000F92112400905B000F92AF92BF921C
:10019000CF92DF92EF92FF920F931F932F933F9393
:1001A0004F935F936F937F938F939F93AF93EF934F
:1001B000FF93CF93DF93CDB7DEB786E490E02FE2D5
:1001C000FC012083A0900802B0900902C0900A02AE
:1001D000D0900B02E0900C02F0900D0200910E0204
:1001E00010910F022A2D3B2D4C2D5D2D6E2D7F2D54
:1001F000802F912FA1E055D1A22EB32EC42ED52E43
:10020000E62EF72E082F192FA0920802B0920902AD
:10021000C0920A02D0920B02E0920C02F0920D0200
:1002200000930E0210930F020000DF91CF91FF9117
:10023000EF91AF919F918F917F916F915F914F91CE
:100240003F912F911F910F91FF90EF90DF90CF90F2
:10025000BF90AF900F9000925B000F9000925F00F4
:100260000F901F901895AF92BF92CF92DF92EF92AE
:10027000FF920F931F93CF93DF93CDB7DEB72091FB
:1002800008023091090240910A0250910B026091DC
:100290000C0270910D0280910E0290910F02A22E1D
:1002A000B32EC42ED52EE62EF72E082F192F2A2D69
:1002B0003B2D4C2D5D2D6E2D7F2D802F912FDF91AD
:1002C000CF911F910F91FF90EF90DF90CF90BF9053
:1002D000AF900895CF93DF931F921F92CDB7DEB7F3
:1002E0009A83898389819A81019751F482E091E010
:1002F00022E031E0F90120812064FC01208309C063
:1003000082E091E022E031E0F90120812F7BFC01C5
:10031000208300000F900F90DF91CF910895AF924E
:10032000BF92CF92DF92EF92FF920F931F93CF93E2
:10033000DF93CDB7DEB797DFA22EB32EC42ED52E16
:10034000E62EF72E082F192FC501909307028093F0
:1003500006022091060230910702809104029091DA
:100360000502281B390B809100029091010282172F
:1003700093075CF480910602909107029093050226
:100380008093040281E090E002C080E090E0DF9181
:10039000CF911F910F91FF90EF90DF90CF90BF9082
:1003A000AF9008951F920F9200905F000F9211245A
:1003B00000905B000F922F933F934F935F936F9347
:1003C0007F938F939F93AF93BF93EF93FF93CF93BD
:1003D000DF93CDB7DEB7A3DF21E0892B09F420E05E
:1003E000222371F0809102029091030221E0892B77
:1003F00009F020E0822F90E09093030280930202A4
:100400000000DF91CF91FF91EF91BF91AF919F914C
:100410008F917F916F915F914F913F912F910F90AD
:1004200000925B000F9000925F000F901F90189554
:10043000CF93DF93CDB7DEB7F89474DE81E091E01F
:1004400021E031E0F90120812064FC01208382E079
:1004500091E022E031E0F90120812F7BFC01208333
:100460008DE290E02DE230E0F90120812F7DFC014A
:1004700020838AE690E02AE630E0F9012081FC0141
:1004800020838DE390E02DE330E0F90120812062AC
:10049000FC012083789480910202909103021ADF7C
:1004A000FACF0024A7FD00942A0F301D401D501DD7
:0E04B000601D701D801D901D0895F894FFCFF3
:0204BE00C80074
:00000001FF
