:10000000EEC000000CC100000AC1000008C10000E1
:1000100006C1000004C1000002C1000000C10000D0
:10002000FEC00000FCC00000FAC00000F8C00000E4
:10003000F6C00000F4C00000F2C00000F0C00000F4
:10004000EEC00000ECC00000EAC00000E8C0000004
:10005000E6C00000E4C00000E2C00000E0C0000014
:10006000DEC00000DCC00000DAC00000D8C0000024
:10007000D6C00000D4C00000D2C00000D0C0000034
:10008000CEC00000CCC00000CAC00000C8C0000044
:10009000C6C00000C4C00000C2C00000C0C0000054
:1000A000BEC00000BCC00000BAC00000B8C0000064
:1000B000B6C00000B4C00000B2C00000B0C0000074
:1000C000AEC00000ACC00000AAC00000A8C0000084
:1000D000A6C00000A4C00000A2C00000A0C0000094
:1000E0009EC0000000407A10F35A00A0724E18091A
:1000F0000010A5D4E80000E87648170000E40B548F
:10010000020000CA9A3B000000E1F505000080965D
:100110009800000040420F000000A086010000008F
:10012000102700000000E803000000006400000049
:1001300000000A00000000000100000000002C7612
:10014000D888DC674F0823DFC1DFAE59E1B1B7962D
:10015000E5E3E453C63AE651997696E8E6C284268A
:10016000EB898C9B62ED407C6FFCEFBC9C9F40F266
:10017000BAA56FA5F490055A2AF75C936B6CF967E2
:100180006DC11BFCE0E40D47FEF520E6B500D0EDA7
:10019000902E0300943577050080841E080000200F
:1001A0004E0A000000C80C333333330F986E1283AD
:1001B0001141EF8D2114893BE65516CFFEE6DB1881
:1001C000D1844B381BF77C1D901DA4BBE424203246
:1001D00084725E228100C9F124ECA1E53D2711243F
:1001E0001FBECFEFD1E2DEBFCDBF00E00CBF12E0FB
:1001F000A0E0B2E0E2EEF2E100E00BBF02C0079047
:100200000D92AC33B107D9F722E0ACE3B2E001C004
:100210001D92A634B207E1F75FD20C946F09F0CEBD
:10022000CF93DF93CDB7DEB785EC90E0FC01108271
:1002300084EC90E027E6FC01208382EC90E022EC45
:1002400030E0F90120812660FC01208381EC90E000
:1002500021EC30E0F90120812861FC0120830000BD
:10026000DF91CF910895CF93DF931F92CDB7DEB783
:10027000898380EC90E0FC018081882F90E080727F
:10028000992721E0892B09F020E0222309F0F1CF02
:1002900086EC90E02981FC01208300000F90DF9123
:1002A000CF910895CF93DF93CDB7DEB78CE790E081
:1002B0002CE730E0F90120812064FC0120838AE7EB
:1002C00090E02AE730E0F90120812768FC012083D3
:1002D0000000DF91CF910895CF93DF931F92CDB7A8
:1002E000DEB789838CE790E02CE730E0F9012081CC
:1002F000322F307F29812F70232BFC0120838AE746
:1003000090E02AE730E0F90120812064FC0120839D
:100310008AE790E0FC018081882F90E08074992723
:1003200021E0892B09F420E0222309F0F1CF88E7AE
:1003300090E0FC01808191810F90DF91CF91089531
:10034000CF93DF9300D01F92CDB7DEB79C838B8312
:100350001A82198289819A812B813C81820F931F95
:10036000FC018081882379F089819A812B813C81ED
:10037000820F931FFC01808176DF89819A8101962B
:100380009A838983E7CF00000F900F900F900F9012
:10039000DF91CF910895CF93DF93CDB7DEB72B9741
:1003A0000FB6F894DEBF0FBECDBF9B878A879E0134
:1003B0002D5F3F4F8A859B854AE050E0B90104D507
:1003C0001A8219829E012D5F3F4F89819A81820F87
:1003D000931FFC018081882381F09E012D5F3F4F98
:1003E00089819A81820F931FFC0180813CDF898182
:1003F0009A8101969A838983E5CF00002B960FB6E8
:10040000F894DEBF0FBECDBFDF91CF9108950F935B
:100410001F93CF93DF93CDB7DEB76A970FB6F894EB
:10042000DEBF0FBECDBF6F8B788F898F9A8F9E01F5
:100430002D5F3F4F8F89988DA98DBA8D890122E05C
:1004400044E0BC01CD01A1D41A8219829E012D5F26
:100450003F4F89819A81820F931FFC0180818823FD
:1004600081F09E012D5F3F4F89819A81820F931FFA
:10047000FC018081F8DE89819A8101969A838983C3
:10048000E5CF8AE0F0DE8DE0EEDE00006A960FB682
:10049000F894DEBF0FBECDBFDF91CF911F910F91BA
:1004A0000895CF93DF93CDB7DEB760970FB6F8947A
:1004B000DEBF0FBECDBF988B8F871A8219821F8235
:1004C000188619861A861B821C821D821E821B8634
:1004D0001C861D861E8680E0FFDECC01A0E0B0E019
:1004E0008F839887A987BA872F81388549855A8550
:1004F0008F819885A985BA85BC01CD01D3D19B0197
:10050000AC018B819C81AD81BE81820F931FA41FA2
:10051000B51F8B839C83AD83BE8389819A810196AD
:100520009A83898329813A818F8598892817390789
:100530000CF4D1CF8F8598899C01990F440B550BF2
:100540008B819C81AD81BE81BC01CD01BAD1DA0124
:10055000C9018B879C87AD87BE876B857C858D8520
:100560009E85A5D2DC01CB01BC01CD01BBD3DC0152
:10057000CB01BC01CD0160960FB6F894DEBF0FBE73
:10058000CDBFDF91CF910895CF93DF93CDB7DEB785
:100590002C970FB6F894DEBF0FBECDBF69877A8760
:1005A0008B879C8780E090E0A0EAB0E489839A83FF
:1005B000AB83BC8380E090ECAFE7B4E48D839E8393
:1005C000AF83B8872D813E814F81588569817A81BB
:1005D0008B819C81D1D1DC01CB0129853A854B856A
:1005E0005C85BC01CD0117D3DC01CB01BC01CD0181
:1005F0002C960FB6F894DEBF0FBECDBFDF91CF9122
:100600000895CF92DF92EF92FF92CF93DF93CDB711
:10061000DEB72A970FB6F894DEBF0FBECDBF9A871C
:10062000898780E090E0AFE7B3E489839A83AB8366
:10063000BC8380E090ECAFE7B4E48D839E83AF830E
:10064000B88789859A85092E000CAA0BBB0BBC01C3
:10065000CD012DD26B017C012D813E814F815885CA
:1006600069817A818B819C8187D1DC01CB019C01DE
:10067000AD01C701B601CFD2DC01CB01BC01CD0178
:100680002A960FB6F894DEBF0FBECDBFDF91CF9193
:10069000FF90EF90DF90CF900895CF93DF93CDB789
:1006A000DEB784E290E024E230E0F90120812061AD
:1006B000FC01208380EB90E023E8FC01208381EBA8
:1006C00090E021E0FC01208383EB90E0FC011082AC
:1006D0000000DF91CF910895CF93DF93CDB7DEB7C0
:1006E0002E970FB6F894DEBF0FBECDBF99DDD5DFD4
:1006F000D9DD80E0F1DD90933D0280933C02809152
:100700003C0290913D02092E000CAA0BBB0BBC01D0
:10071000CD01CDD1DC01CB01BC01CD0135DFDC0148
:10072000CB0180933E0290933F02A0934002B0938E
:1007300041028EE190E0B5DEDC01CB01BC01CD01D0
:1007400083D1DC01CB0190934302809342028091DC
:100750003C0290913D0255DFDC01CB01BC01CD0193
:1007600073D1DC01CB01909345028093440283EB6B
:1007700090E02091440230914502FC01208380E00A
:1007800092E0DEDD80913C0290913D0204DE83E147
:1007900092E0D6DD8091440290914502FCDD81E239
:1007A00092E0CEDD8091420290914302F4DD80E33D
:1007B00092E0C6DD80913E0290913F02A0914002FE
:1007C000B0914102BC01CD0122DE80E090E0A0E2C8
:1007D000B1E489839A83AB83BC8320E030E04AE7AD
:1007E00055E469817A818B819C8115D2DC01CB0132
:1007F0008D839E83AF83B88720E030E040E85FE3DD
:100800006D817E818F819885B3D088232CF481E01F
:1008100090E09A8789873BC020E03FEF4FE757E49D
:100820006D817E818F819885F2D118163CF520E08C
:1008300030E040E251E469817A818B819C81EBD187
:10084000DC01CB01BC01CD0104D1DC01CB019A87D5
:10085000898789859A85892B09F44BCF80E991E0B6
:100860009C878B878B859C850197F1F79C878B876D
:1008700089859A8501979A878987EBCF6D817E81DB
:100880008F819885E6D0DC01CB019A87898789859D
:100890009A859E878D878D859E850197F1F79E8726
:1008A0008D8727CFDB018F939F9327D0BF91AF9187
:1008B000A29F800D911DA39F900DB29F900D1124BA
:1008C0000895052E97FB16F400940FD057FD05D020
:1008D0001ED007FC02D046F408C0509540953095D4
:1008E00021953F4F4F4F5F4F08959095809570959C
:1008F00061957F4F8F4F9F4F08952BD0A59F900DEF
:10090000B49F900DA49F800D911D11240895A1E224
:100910001A2EAA1BBB1BFD010DC0AA1FBB1FEE1F79
:10092000FF1FA217B307E407F50720F0A21BB30BC4
:10093000E40BF50B661F771F881F991F1A9469F740
:1009400060957095809590959B01AC01BD01CF019C
:100950000895A29FB001B39FC001A39F700D811D98
:100960001124911DB29F700D811D1124911D0895B8
:10097000D9D008F481E008950CD00FC107D140F020
:10098000FED030F021F45F3F19F0F0C0511139C1B1
:10099000F3C014D198F39923C9F35523B1F3951BF0
:1009A000550BBB27AA2762177307840738F09F5F90
:1009B0005F4F220F331F441FAA1FA9F333D00E2EFF
:1009C0003AF0E0E830D091505040E695001CCAF76C
:1009D00029D0FE2F27D0660F771F881FBB1F261731
:1009E00037074807AB07B0E809F0BB0B802DBF0104
:1009F000FF2793585F4F2AF09E3F510568F0B6C01D
:100A000000C15F3FECF3983EDCF3869577956795E0
:100A1000B795F7959F5FC9F7880F911D96958795B4
:100A200097F90895E1E0660F771F881FBB1F6217D3
:100A300073078407BA0720F0621B730B840BBA0B91
:100A4000EE1F88F7E095089504D06894B111D9C0DD
:100A50000895BCD088F09F5790F0B92F9927B751CF
:100A6000A0F0D1F0660F771F881F991F1AF0BA9572
:100A7000C9F712C0B13081F0C3D0B1E00895C0C051
:100A8000672F782F8827B85F39F0B93FCCF3869568
:100A900077956795B395D9F73EF4909580957095C5
:100AA00061957F4F8F4F9F4F0895E89409C097FB42
:100AB0003EF490958095709561957F4F8F4F9F4F35
:100AC0009923A9F0F92F96E9BB279395F695879579
:100AD00077956795B795F111F8CFFAF4BB0F11F43C
:100AE00060FF1BC06F5F7F4F8F4F9F4F16C08823E3
:100AF00011F096E911C0772321F09EE8872F762F19
:100B000005C0662371F096E8862F70E060E02AF059
:100B10009A95660F771F881FDAF7880F9695879545
:100B200097F90895990F0008550FAA0BE0E8FEEF1A
:100B300016161706E807F907C0F012161306E407A1
:100B4000F50798F0621B730B840B950B39F40A269A
:100B500061F0232B242B252B21F408950A2609F478
:100B6000A140A6958FEF811D811D089597F99F677C
:100B700080E870E060E008959FEF80EC0895002425
:100B80000A941616170618060906089500240A94F2
:100B900012161306140605060895092E0394000C78
:100BA00011F4882352F0BB0F40F4BF2B11F460FF07
:100BB00004C06F5F7F4F8F4F9F4F089557FD905830
:100BC000440F551F59F05F3F71F04795880F97FB11
:100BD000991F61F09F3F79F08795089512161306CB
:100BE0001406551FF2CF4695F1DF08C016161706FA
:100BF0001806991FF1CF869571056105089408952F
:100C0000E894BB2766277727CB0197F908958ADFF9
:100C100008F48FEF08950BD0C0CFB1DF28F0B6DF16
:100C200018F0952309F0A2CFA7CF1124EACFC6DF91
:100C3000A0F3959FD1F3950F50E0551F629FF001EF
:100C4000729FBB27F00DB11D639FAA27F00DB11D48
:100C5000AA1F649F6627B00DA11D661F829F2227D1
:100C6000B00DA11D621F739FB00DA11D621F839F58
:100C7000A00D611D221F749F3327A00D611D231F2E
:100C8000849F600D211D822F762F6A2F11249F577C
:100C900050408AF0E1F088234AF0EE0FFF1FBB1F9F
:100CA000661F771F881F91505040A9F79E3F51053E
:100CB00070F05CCFA6CF5F3FECF3983EDCF38695F7
:100CC00077956795B795F795E7959F5FC1F7FE2BE9
:100CD000880F911D9695879597F9089511F40EF454
:100CE0004BCF3EC073DFD0F39923D9F3CEF39F5798
:100CF000550B87FF43D00024A0E640EA90018058BE
:100D00005695979528F4805C660F771F881F20F012
:100D100026173707480730F4621B730B840B202912
:100D200031294A2BA69517940794202531254A2767
:100D300058F7660F771F881F20F0261737074807D8
:100D400030F4620B730B840B200D311D411DA095F7
:100D500081F7B901842F9158880F9695879508954A
:100D60009F3F31F0915020F4879577956795B7951F
:100D7000880F911D9695879597F908959150504049
:100D8000660F771F881FD2F70895EF920F931F9376
:100D9000CF93DF93E80147FD02C034E001C034E1A6
:100DA000042E000C550B57FF03C051954195510976
:100DB000E32E022F242FAE0134D0CE01DF91CF914C
:100DC0001F910F91EF9008954532510518F442306C
:100DD00008F004C0FB011082CB010895BB274A3004
:100DE00031F4992322F4BDE2909581959F4F01C083
:100DF000BB27FB015527AA27880F991FAA1FA417F5
:100E000010F0A41B83955051B9F7A05DAA3308F0E8
:100E1000A95DA193009779F7B111B1931192CB011C
:100E20004EC28F929F92AF92BF92CF92DF92EF927B
:100E3000FF920F931F93CF93DF93CDB7DEB7299720
:100E40000FB6F894DEBF0FBECDBF6A01122FB02ED1
:100E50002BE3201720F0FF24F394F00E02C02CE3C4
:100E6000F22E0F2D27E0AE014F5F5F4F50D1BC0136
:100E70004981842F8970813031F0E1FC06C0E0FEA9
:100E800006C090E205C09DE203C09BE201C090E075
:100E90005E2D507143FF3CC0911102C083E001C040
:100EA00084E0811718F4212F281B01C020E0511184
:100EB0000BC0F601822F30E2882319F03193815064
:100EC000FBCFC20ED11C20E0992329F0D6019C93C0
:100ED000F60131966F01C6010396E2FE0AC03EE4B8
:100EE000D6013C9341E411964C93119712963C9392
:100EF00006C03EE6F601308341E641833283FC01C1
:100F0000322F40E2332309F442C041933150FACFEB
:100F100042FF44C0911102C083E001C084E0811708
:100F200018F4212F281B01C020E051110BC0F6013D
:100F3000822F30E2882319F031938150FBCFC20E0B
:100F4000D11C20E0992329F0D6019C93F60131961B
:100F50006F01C6010396E2FE0BC039E4D6013C9353
:100F60003EE411963C93119736E412963C9307C0E9
:100F700039E6F60130833EE6318336E63283FC0102
:100F8000322F40E2332319F041933150FBCFFC0163
:100F9000E20FF11D10828EEF9FEFA6C021E030E03E
:100FA000911102C020E030E0161617061CF4FB0178
:100FB000319602C0E1E0F0E02E0F3F1FBB2021F090
:100FC000EB2DF0E0319602C0E0E0F0E02E0F3F1F85
:100FD000E12FF0E02E173F071CF4121B212F01C058
:100FE00020E08E2D887159F4F601822F30E288239B
:100FF00019F031938150FBCFC20ED11C20E0992310
:1010000029F0D6019C93F60131966F0151110BC066
:10101000F601822F90E3882319F091938150FBCF42
:10102000C20ED11C20E00F2D060F9A81342F307193
:1010300044FF03C0913309F40150101624F4093021
:1010400018F008E001C001E0AB0177FF02C040E00A
:1010500050E0FB01E41BF50BA1E0B0E0AC0FBD1FBD
:10106000EA0FFB1F8EE2A82E4B01801A91080B2D70
:1010700010E01195019511094F3FBFEF5B0721F477
:10108000D601AC9211966D01641775072CF0841689
:10109000950614F4818101C080E3415051093196D5
:1010A000D60111967D014017510724F0D6018C938B
:1010B0006701E2CF6417750739F4963320F495334E
:1010C00019F4311101C081E3F6018083F701822F09
:1010D00090E2882319F091938150FBCFF701E20F42
:1010E000F11D108280E090E029960FB6F894DEBFE3
:1010F0000FBECDBFDF91CF911F910F91FF90EF9069
:10110000DF90CF90BF90AF909F908F900895283040
:1011100008F027E03327DA01990F311D87FD916030
:1011200000966105710539F432602E5F3D9330E31E
:101130002A95E1F708959F3F30F0803871056105E9
:1011400009F03C5F3C5F3D93913008F08068911D51
:10115000DF93CF931F930F93FF92EF92192F987FF6
:101160009695E92F96959695E90FFF27E25CFE4F3D
:1011700099273327EE24FF24A701E701059008945F
:10118000079428F4360FE71EF81E491F511D660FFD
:10119000771F881F991F0694A1F70590079428F4DC
:1011A000E70EF81E491F561FC11D770F881F991F94
:1011B000661F0694A1F70590079428F4F80E491FBE
:1011C000561FC71FD11D880F991F661F771F0694D2
:1011D000A1F70590079420F4490F561FC71FD81F89
:1011E000990F661F771F881F0694A9F784911095A1
:1011F000177041F0D695C79557954795F794E794A2
:101200001A95C1F7E4EEF0E06894159015913591C8
:101210006591959105907FE27395E118F10A430B72
:10122000560BC90BD009C0F7E10CF11E431F561F26
:10123000C91FD01D7EF4703311F48A95E6CFE8946F
:10124000015030F0080F0AF40027021708F4202F8D
:101250002395022F7A3328F079E37D932A95E9F7D5
:1012600010C07D932A9589F60694979567953795D2
:1012700017951794E118F10A430B560BC90BD009C7
:1012800098F023957E9173957A3308F070E37C9300
:101290002013B8F77E9170617D9330F0839571E3F0
:1012A0007D9370E32A95E1F71124EF90FF900F9161
:1012B0001F91CF91DF91992787FD90950895DC01CB
:1012C000FC01672F71917723E1F7329704C07C917D
:1012D0006D9370836291AE17BF07C8F30895F894B9
:0212E000FFCF3E
:1012E20056616C6F7220616E616C6F6769636F200B
:1012F2003D20000956616C6F722050574D203D20F1
:1013020000092056616C6F7220524D53203D20001F
:0C1312000920766F6C7473203D200000F1
:00000001FF
